{
  "_format": "hh-sol-artifact-1",
  "contractName": "WavePortal",
  "sourceName": "contracts/WavePortal.sol",
  "abi": [
    {
      "inputs": [],
      "stateMutability": "nonpayable",
      "type": "constructor"
    },
    {
      "inputs": [
        {
          "internalType": "address",
          "name": "",
          "type": "address"
        }
      ],
      "name": "addressWaves",
      "outputs": [
        {
          "internalType": "uint256",
          "name": "",
          "type": "uint256"
        }
      ],
      "stateMutability": "view",
      "type": "function"
    },
    {
      "inputs": [],
      "name": "getTotalWaves",
      "outputs": [
        {
          "internalType": "uint256",
          "name": "",
          "type": "uint256"
        }
      ],
      "stateMutability": "view",
      "type": "function"
    },
    {
      "inputs": [],
      "name": "wave",
      "outputs": [],
      "stateMutability": "nonpayable",
      "type": "function"
    }
  ],
  "bytecode": "0x608060405234801561001057600080fd5b5061003c60405180606001604052806025815260200161087a6025913961004160201b6102381760201c565b6101bb565b6100dd816040516024016100559190610199565b6040516020818303038152906040527f41304fac000000000000000000000000000000000000000000000000000000007bffffffffffffffffffffffffffffffffffffffffffffffffffffffff19166020820180517bffffffffffffffffffffffffffffffffffffffffffffffffffffffff83818316178352505050506100e060201b60201c565b50565b60008151905060006a636f6e736f6c652e6c6f679050602083016000808483855afa5050505050565b600081519050919050565b600082825260208201905092915050565b60005b83811015610143578082015181840152602081019050610128565b60008484015250505050565b6000601f19601f8301169050919050565b600061016b82610109565b6101758185610114565b9350610185818560208601610125565b61018e8161014f565b840191505092915050565b600060208201905081810360008301526101b38184610160565b905092915050565b6106b0806101ca6000396000f3fe608060405234801561001057600080fd5b50600436106100415760003560e01c80632280cbff146100465780636fe15b44146100765780639a2cdc0814610080575b600080fd5b610060600480360381019061005b9190610495565b61009e565b60405161006d91906104db565b60405180910390f35b61007e6100b6565b005b6100886101ed565b60405161009591906104db565b60405180910390f35b60026020528060005260406000206000915090505481565b60016000808282546100c89190610525565b9250508190555061010e6040518060400160405280600d81526020017f2573206861732077617665642100000000000000000000000000000000000000815250336102d1565b60018060008282546101209190610525565b92505081905550600154600260003373ffffffffffffffffffffffffffffffffffffffff1673ffffffffffffffffffffffffffffffffffffffff168152602001908152602001600020819055506101eb6040518060400160405280601781526020017f596f75727320746f74616c207761766573206973202573000000000000000000815250600260003373ffffffffffffffffffffffffffffffffffffffff1673ffffffffffffffffffffffffffffffffffffffff1681526020019081526020016000205461036d565b565b60006102306040518060400160405280601781526020017f5765206861766520256420746f74616c2077617665732100000000000000000081525060005461036d565b600054905090565b6102ce8160405160240161024c91906105e9565b6040516020818303038152906040527f41304fac000000000000000000000000000000000000000000000000000000007bffffffffffffffffffffffffffffffffffffffffffffffffffffffff19166020820180517bffffffffffffffffffffffffffffffffffffffffffffffffffffffff8381831617835250505050610409565b50565b61036982826040516024016102e792919061061a565b6040516020818303038152906040527f319af333000000000000000000000000000000000000000000000000000000007bffffffffffffffffffffffffffffffffffffffffffffffffffffffff19166020820180517bffffffffffffffffffffffffffffffffffffffffffffffffffffffff8381831617835250505050610409565b5050565b610405828260405160240161038392919061064a565b6040516020818303038152906040527fb60e72cc000000000000000000000000000000000000000000000000000000007bffffffffffffffffffffffffffffffffffffffffffffffffffffffff19166020820180517bffffffffffffffffffffffffffffffffffffffffffffffffffffffff8381831617835250505050610409565b5050565b60008151905060006a636f6e736f6c652e6c6f679050602083016000808483855afa5050505050565b600080fd5b600073ffffffffffffffffffffffffffffffffffffffff82169050919050565b600061046282610437565b9050919050565b61047281610457565b811461047d57600080fd5b50565b60008135905061048f81610469565b92915050565b6000602082840312156104ab576104aa610432565b5b60006104b984828501610480565b91505092915050565b6000819050919050565b6104d5816104c2565b82525050565b60006020820190506104f060008301846104cc565b92915050565b7f4e487b7100000000000000000000000000000000000000000000000000000000600052601160045260246000fd5b6000610530826104c2565b915061053b836104c2565b9250828201905080821115610553576105526104f6565b5b92915050565b600081519050919050565b600082825260208201905092915050565b60005b83811015610593578082015181840152602081019050610578565b60008484015250505050565b6000601f19601f8301169050919050565b60006105bb82610559565b6105c58185610564565b93506105d5818560208601610575565b6105de8161059f565b840191505092915050565b6000602082019050818103600083015261060381846105b0565b905092915050565b61061481610457565b82525050565b6000604082019050818103600083015261063481856105b0565b9050610643602083018461060b565b9392505050565b6000604082019050818103600083015261066481856105b0565b905061067360208301846104cc565b939250505056fea2646970667358221220d8e74fe8ade80baa90b468778580b1a1b2d051d4f433753cdf9f0d8380b250d864736f6c63430008110033596f20796f2c204920616d206120636f6e747261637420616e64204920616d20736d617274",
  "linkReferences": {},
  "deployedLinkReferences": {}
}