{
  "_format": "hh-sol-artifact-1",
  "contractName": "WavePortal",
  "sourceName": "contracts/WavePortal.sol",
  "abi": [
    {
      "inputs": [],
      "stateMutability": "nonpayable",
      "type": "constructor"
    },
    {
      "anonymous": false,
      "inputs": [
        {
          "indexed": true,
          "internalType": "address",
          "name": "from",
          "type": "address"
        },
        {
          "indexed": false,
          "internalType": "uint256",
          "name": "timestamp",
          "type": "uint256"
        },
        {
          "indexed": false,
          "internalType": "string",
          "name": "message",
          "type": "string"
        }
      ],
      "name": "NewWave",
      "type": "event"
    },
    {
      "inputs": [],
      "name": "getAllWaves",
      "outputs": [
        {
          "components": [
            {
              "internalType": "address",
              "name": "waver",
              "type": "address"
            },
            {
              "internalType": "string",
              "name": "message",
              "type": "string"
            },
            {
              "internalType": "uint256",
              "name": "timestamp",
              "type": "uint256"
            }
          ],
          "internalType": "struct WavePortal.Wave[]",
          "name": "",
          "type": "tuple[]"
        }
      ],
      "stateMutability": "view",
      "type": "function"
    },
    {
      "inputs": [
        {
          "internalType": "string",
          "name": "_message",
          "type": "string"
        }
      ],
      "name": "wave",
      "outputs": [],
      "stateMutability": "nonpayable",
      "type": "function"
    }
  ],
  "bytecode": "0x60806040523480156200001157600080fd5b506200005d6040518060400160405280601981526020017f4920414d20534d41525420434f4e54524143542e20504f472e000000000000008152506200006360201b620003371760201c565b620001ed565b62000103816040516024016200007a9190620001c9565b6040516020818303038152906040527f41304fac000000000000000000000000000000000000000000000000000000007bffffffffffffffffffffffffffffffffffffffffffffffffffffffff19166020820180517bffffffffffffffffffffffffffffffffffffffffffffffffffffffff83818316178352505050506200010660201b60201c565b50565b60008151905060006a636f6e736f6c652e6c6f679050602083016000808483855afa5050505050565b600081519050919050565b600082825260208201905092915050565b60005b838110156200016b5780820151818401526020810190506200014e565b60008484015250505050565b6000601f19601f8301169050919050565b600062000195826200012f565b620001a181856200013a565b9350620001b38185602086016200014b565b620001be8162000177565b840191505092915050565b60006020820190508181036000830152620001e5818462000188565b905092915050565b610cbe80620001fd6000396000f3fe608060405234801561001057600080fd5b50600436106100365760003560e01c8063449d46c01461003b578063bd43a90814610057575b600080fd5b610055600480360381019061005091906105f2565b610075565b005b61005f6101e6565b60405161006c9190610826565b60405180910390f35b60016000808282546100879190610877565b925050819055506100ce6040518060400160405280601681526020017f257320776176656420772f206d6573736167652025730000000000000000000081525033836103d0565b600160405180606001604052803373ffffffffffffffffffffffffffffffffffffffff16815260200183815260200142815250908060018154018082558091505060019003906000526020600020906003020160009091909190915060008201518160000160006101000a81548173ffffffffffffffffffffffffffffffffffffffff021916908373ffffffffffffffffffffffffffffffffffffffff16021790555060208201518160010190816101869190610ab7565b506040820151816002015550503373ffffffffffffffffffffffffffffffffffffffff167f5f7e16dc676677766a70e9c5628aa6c54ddb8b6e5188e2ae1e1f17f1ffbea71642836040516101db929190610be2565b60405180910390a250565b60606001805480602002602001604051908101604052809291908181526020016000905b8282101561032e57838290600052602060002090600302016040518060600160405290816000820160009054906101000a900473ffffffffffffffffffffffffffffffffffffffff1673ffffffffffffffffffffffffffffffffffffffff1673ffffffffffffffffffffffffffffffffffffffff168152602001600182018054610293906108da565b80601f01602080910402602001604051908101604052809291908181526020018280546102bf906108da565b801561030c5780601f106102e15761010080835404028352916020019161030c565b820191906000526020600020905b8154815290600101906020018083116102ef57829003601f168201915b505050505081526020016002820154815250508152602001906001019061020a565b50505050905090565b6103cd8160405160240161034b9190610c12565b6040516020818303038152906040527f41304fac000000000000000000000000000000000000000000000000000000007bffffffffffffffffffffffffffffffffffffffffffffffffffffffff19166020820180517bffffffffffffffffffffffffffffffffffffffffffffffffffffffff838183161783525050505061046f565b50565b61046a8383836040516024016103e893929190610c43565b6040516020818303038152906040527fe0e9ad4f000000000000000000000000000000000000000000000000000000007bffffffffffffffffffffffffffffffffffffffffffffffffffffffff19166020820180517bffffffffffffffffffffffffffffffffffffffffffffffffffffffff838183161783525050505061046f565b505050565b60008151905060006a636f6e736f6c652e6c6f679050602083016000808483855afa5050505050565b6000604051905090565b600080fd5b600080fd5b600080fd5b600080fd5b6000601f19601f8301169050919050565b7f4e487b7100000000000000000000000000000000000000000000000000000000600052604160045260246000fd5b6104ff826104b6565b810181811067ffffffffffffffff8211171561051e5761051d6104c7565b5b80604052505050565b6000610531610498565b905061053d82826104f6565b919050565b600067ffffffffffffffff82111561055d5761055c6104c7565b5b610566826104b6565b9050602081019050919050565b82818337600083830152505050565b600061059561059084610542565b610527565b9050828152602081018484840111156105b1576105b06104b1565b5b6105bc848285610573565b509392505050565b600082601f8301126105d9576105d86104ac565b5b81356105e9848260208601610582565b91505092915050565b600060208284031215610608576106076104a2565b5b600082013567ffffffffffffffff811115610626576106256104a7565b5b610632848285016105c4565b91505092915050565b600081519050919050565b600082825260208201905092915050565b6000819050602082019050919050565b600073ffffffffffffffffffffffffffffffffffffffff82169050919050565b600061069282610667565b9050919050565b6106a281610687565b82525050565b600081519050919050565b600082825260208201905092915050565b60005b838110156106e25780820151818401526020810190506106c7565b60008484015250505050565b60006106f9826106a8565b61070381856106b3565b93506107138185602086016106c4565b61071c816104b6565b840191505092915050565b6000819050919050565b61073a81610727565b82525050565b60006060830160008301516107586000860182610699565b506020830151848203602086015261077082826106ee565b91505060408301516107856040860182610731565b508091505092915050565b600061079c8383610740565b905092915050565b6000602082019050919050565b60006107bc8261063b565b6107c68185610646565b9350836020820285016107d885610657565b8060005b8581101561081457848403895281516107f58582610790565b9450610800836107a4565b925060208a019950506001810190506107dc565b50829750879550505050505092915050565b6000602082019050818103600083015261084081846107b1565b905092915050565b7f4e487b7100000000000000000000000000000000000000000000000000000000600052601160045260246000fd5b600061088282610727565b915061088d83610727565b92508282019050808211156108a5576108a4610848565b5b92915050565b7f4e487b7100000000000000000000000000000000000000000000000000000000600052602260045260246000fd5b600060028204905060018216806108f257607f821691505b602082108103610905576109046108ab565b5b50919050565b60008190508160005260206000209050919050565b60006020601f8301049050919050565b600082821b905092915050565b60006008830261096d7fffffffffffffffffffffffffffffffffffffffffffffffffffffffffffffffff82610930565b6109778683610930565b95508019841693508086168417925050509392505050565b6000819050919050565b60006109b46109af6109aa84610727565b61098f565b610727565b9050919050565b6000819050919050565b6109ce83610999565b6109e26109da826109bb565b84845461093d565b825550505050565b600090565b6109f76109ea565b610a028184846109c5565b505050565b5b81811015610a2657610a1b6000826109ef565b600181019050610a08565b5050565b601f821115610a6b57610a3c8161090b565b610a4584610920565b81016020851015610a54578190505b610a68610a6085610920565b830182610a07565b50505b505050565b600082821c905092915050565b6000610a8e60001984600802610a70565b1980831691505092915050565b6000610aa78383610a7d565b9150826002028217905092915050565b610ac0826106a8565b67ffffffffffffffff811115610ad957610ad86104c7565b5b610ae382546108da565b610aee828285610a2a565b600060209050601f831160018114610b215760008415610b0f578287015190505b610b198582610a9b565b865550610b81565b601f198416610b2f8661090b565b60005b82811015610b5757848901518255600182019150602085019450602081019050610b32565b86831015610b745784890151610b70601f891682610a7d565b8355505b6001600288020188555050505b505050505050565b610b9281610727565b82525050565b600082825260208201905092915050565b6000610bb4826106a8565b610bbe8185610b98565b9350610bce8185602086016106c4565b610bd7816104b6565b840191505092915050565b6000604082019050610bf76000830185610b89565b8181036020830152610c098184610ba9565b90509392505050565b60006020820190508181036000830152610c2c8184610ba9565b905092915050565b610c3d81610687565b82525050565b60006060820190508181036000830152610c5d8186610ba9565b9050610c6c6020830185610c34565b8181036040830152610c7e8184610ba9565b905094935050505056fea2646970667358221220fa10db5688dcdc85fff571d02be244ac24a7dd47a351d621ec1cdc2087fddcb964736f6c63430008110033",
  "linkReferences": {},
  "deployedLinkReferences": {}
}